:100000000C9434000C9451000C9451000C94510049
:100010000C9451000C9451000C9451000C9451001C
:100020000C9451000C9451000C9451000C9451000C
:100030000C9451000C9451000C9451000C945100FC
:100040000C9451000C9451000C9451000C945100EC
:100050000C9451000C9451000C9451000C945100DC
:100060000C9451000C94510011241FBECFEFD8E026
:10007000DEBFCDBF11E0A0E0B1E0E2E9F4E002C0F4
:1000800005900D92AA31B107D9F721E0AAE1B1E0BC
:1000900001C01D92AB31B207E1F70E9432020C940D
:1000A00047020C94000080E886BF8CE486BF089568
:1000B0001F93CF93DF93D82F192FC62F0E94C7010C
:1000C00012BDD1BDC0BD84E08FBB82E08FBBDF918C
:1000D000CF911F910C94CC0192BD81BDF89A000084
:1000E000000080B50895CF92DF92EF92FF92CF93F8
:1000F000DF93EC016A017B010E94C70111BCC0BC07
:1001000081E081BDBB27AF2D9E2D8D2D80BD82E06E
:1001100081BDC701AA27BB2780BD83E081BDCF2C4D
:10012000DD24EE24FF24C0BCD2BDC1BD84E48FBB5E
:1001300082E48FBBDF91CF91FF90EF90DF90CF9063
:100140000C94CC0192BD81BDF89A0000000020B54E
:100150003AB767B7862F90E0A0E0B0E0DC019927BE
:100160008827932B822B2CB7BC01CD01922B0895AD
:100170009F92AF92BF92CF92DF92EF92FF920F9336
:100180001F93CF93DF9326B7206226BF20E826BFB8
:1001900026B7206126BF92BD81BDEB01042F10E080
:1001A000E12CF12C680181E0C81AD10850E8B52E85
:1001B00064E4A62E72E4972EE016F10671F1CE14D7
:1001C000DF0421F4B6BE86B78F7E86BFFE0188812C
:1001D00080BD88819981AA81BB81892F9A2FAB2FFD
:1001E000BB278ABF89919991A991B991CD01AA277D
:1001F000BB2787BF80819181A281B3818B2F9927F3
:10020000AA27BB278CBF0E94C701AFBA9FBA0E9422
:10021000CC018FEFE81AF80ACFCFDF91CF911F9171
:100220000F91FF90EF90DF90CF90BF90AF909F9095
:100230000895CF9326B7206226BF20E826BF26B7B1
:10024000206126BF92BD81BDFB0120E030E0642F1C
:1002500070E06150710950E8241738F56217730790
:1002600021F456BF86B78F7E86BFF89A0000000043
:1002700080B590E0A0E0B0E080839183A283B38357
:10028000CAB79C2B80839183A283B383C7B7AC2B5F
:1002900080839183A283B383CCB7BC2B819391934A
:1002A000A193B1932F5F3F4FD7CFCF910895259A58
:1002B00090E030E29817D1F025B1232725B92FEF30
:1002C00044E35CE0215040405040E1F700C00000B2
:1002D00025B1232725B92FEF44E35CE021504040AE
:1002E0005040E1F700C000009F5FE4CF08951092F6
:1002F000C00086E08093C20088E18093C100109224
:10030000C50083E38093C40008959091C00095FFD9
:10031000FCCF8093C60008958091C00087FFFCCF7A
:100320008091C6000895CF93DF93EC0189918823D3
:1003300019F00E948501FACFDF91CF91089588E0EE
:1003400083BF0895E1E6F0E04081AFECB0E05C915E
:1003500024B72F673FB7F89490E894BF6FEF64BF5E
:10036000908368E060839C9362E06C938770880F51
:10037000816083BF88959C935C930000000000001F
:1003800000009083408394BF24BF3FBF08958FB780
:1003900080931A01F894089580911A018FBF0895EF
:1003A0008FEF84BF84BF08958FE784BF84BF089513
:1003B000E0EFF0E08081826090E890838083089590
:1003C000E0EFF0E080818D7F90E890838083089556
:1003D000E0EFF0E08081816090E890838083089571
:1003E000E0EFF0E080818E7F90E890838083089535
:1003F0008130C9F48091F200846090E89093F2001B
:100400008093F2008AE68A95F1F700C08091F200AD
:100410008F7980629093F2008093F2009093610054
:10042000109261000895811114C090E890936100CA
:1004300081E0809361008091F2008F799093F200C7
:100440008093F2008091F2008B7F9093F200809372
:10045000F20008958F708068E1E6F0E090E8908304
:100460008083089585E00E94570181E00E942A025E
:100470000E94770180E091E00E94930181E00E9458
:1004800057010E948C010E9485010000F7CFF8946B
:02049000FFCF9C
:1004920048656C6C6F2066726F6D204C475438460D
:0A04A2003332385021200D0A00000B
:00000001FF
